{
  "_format": "hh-sol-artifact-1",
  "contractName": "MyEpicNFT",
  "sourceName": "contracts/MyEpicNFT.sol",
  "abi": [
    {
      "inputs": [],
      "stateMutability": "nonpayable",
      "type": "constructor"
    },
    {
      "anonymous": false,
      "inputs": [
        {
          "indexed": true,
          "internalType": "address",
          "name": "owner",
          "type": "address"
        },
        {
          "indexed": true,
          "internalType": "address",
          "name": "approved",
          "type": "address"
        },
        {
          "indexed": true,
          "internalType": "uint256",
          "name": "tokenId",
          "type": "uint256"
        }
      ],
      "name": "Approval",
      "type": "event"
    },
    {
      "anonymous": false,
      "inputs": [
        {
          "indexed": true,
          "internalType": "address",
          "name": "owner",
          "type": "address"
        },
        {
          "indexed": true,
          "internalType": "address",
          "name": "operator",
          "type": "address"
        },
        {
          "indexed": false,
          "internalType": "bool",
          "name": "approved",
          "type": "bool"
        }
      ],
      "name": "ApprovalForAll",
      "type": "event"
    },
    {
      "anonymous": false,
      "inputs": [
        {
          "indexed": false,
          "internalType": "uint256",
          "name": "_fromTokenId",
          "type": "uint256"
        },
        {
          "indexed": false,
          "internalType": "uint256",
          "name": "_toTokenId",
          "type": "uint256"
        }
      ],
      "name": "BatchMetadataUpdate",
      "type": "event"
    },
    {
      "anonymous": false,
      "inputs": [
        {
          "indexed": false,
          "internalType": "uint256",
          "name": "_tokenId",
          "type": "uint256"
        }
      ],
      "name": "MetadataUpdate",
      "type": "event"
    },
    {
      "anonymous": false,
      "inputs": [
        {
          "indexed": false,
          "internalType": "address",
          "name": "sender",
          "type": "address"
        },
        {
          "indexed": false,
          "internalType": "uint256",
          "name": "tokenId",
          "type": "uint256"
        }
      ],
      "name": "NewEpicNFTMinted",
      "type": "event"
    },
    {
      "anonymous": false,
      "inputs": [
        {
          "indexed": true,
          "internalType": "address",
          "name": "from",
          "type": "address"
        },
        {
          "indexed": true,
          "internalType": "address",
          "name": "to",
          "type": "address"
        },
        {
          "indexed": true,
          "internalType": "uint256",
          "name": "tokenId",
          "type": "uint256"
        }
      ],
      "name": "Transfer",
      "type": "event"
    },
    {
      "inputs": [
        {
          "internalType": "address",
          "name": "to",
          "type": "address"
        },
        {
          "internalType": "uint256",
          "name": "tokenId",
          "type": "uint256"
        }
      ],
      "name": "approve",
      "outputs": [],
      "stateMutability": "nonpayable",
      "type": "function"
    },
    {
      "inputs": [
        {
          "internalType": "address",
          "name": "owner",
          "type": "address"
        }
      ],
      "name": "balanceOf",
      "outputs": [
        {
          "internalType": "uint256",
          "name": "",
          "type": "uint256"
        }
      ],
      "stateMutability": "view",
      "type": "function"
    },
    {
      "inputs": [],
      "name": "generateSVGData",
      "outputs": [
        {
          "internalType": "string",
          "name": "",
          "type": "string"
        }
      ],
      "stateMutability": "view",
      "type": "function"
    },
    {
      "inputs": [
        {
          "internalType": "uint256",
          "name": "tokenId",
          "type": "uint256"
        }
      ],
      "name": "getApproved",
      "outputs": [
        {
          "internalType": "address",
          "name": "",
          "type": "address"
        }
      ],
      "stateMutability": "view",
      "type": "function"
    },
    {
      "inputs": [
        {
          "internalType": "address",
          "name": "owner",
          "type": "address"
        },
        {
          "internalType": "address",
          "name": "operator",
          "type": "address"
        }
      ],
      "name": "isApprovedForAll",
      "outputs": [
        {
          "internalType": "bool",
          "name": "",
          "type": "bool"
        }
      ],
      "stateMutability": "view",
      "type": "function"
    },
    {
      "inputs": [],
      "name": "makeAnEpicNFT",
      "outputs": [],
      "stateMutability": "nonpayable",
      "type": "function"
    },
    {
      "inputs": [],
      "name": "name",
      "outputs": [
        {
          "internalType": "string",
          "name": "",
          "type": "string"
        }
      ],
      "stateMutability": "view",
      "type": "function"
    },
    {
      "inputs": [
        {
          "internalType": "uint256",
          "name": "tokenId",
          "type": "uint256"
        }
      ],
      "name": "ownerOf",
      "outputs": [
        {
          "internalType": "address",
          "name": "",
          "type": "address"
        }
      ],
      "stateMutability": "view",
      "type": "function"
    },
    {
      "inputs": [
        {
          "internalType": "uint256",
          "name": "tokenId",
          "type": "uint256"
        }
      ],
      "name": "pickRandomColor",
      "outputs": [
        {
          "internalType": "string",
          "name": "",
          "type": "string"
        }
      ],
      "stateMutability": "view",
      "type": "function"
    },
    {
      "inputs": [
        {
          "internalType": "uint256",
          "name": "tokenId",
          "type": "uint256"
        }
      ],
      "name": "pickRandomFirstWord",
      "outputs": [
        {
          "internalType": "string",
          "name": "",
          "type": "string"
        }
      ],
      "stateMutability": "view",
      "type": "function"
    },
    {
      "inputs": [
        {
          "internalType": "uint256",
          "name": "tokenId",
          "type": "uint256"
        }
      ],
      "name": "pickRandomSecondWord",
      "outputs": [
        {
          "internalType": "string",
          "name": "",
          "type": "string"
        }
      ],
      "stateMutability": "view",
      "type": "function"
    },
    {
      "inputs": [
        {
          "internalType": "uint256",
          "name": "tokenId",
          "type": "uint256"
        }
      ],
      "name": "pickRandomThirdWord",
      "outputs": [
        {
          "internalType": "string",
          "name": "",
          "type": "string"
        }
      ],
      "stateMutability": "view",
      "type": "function"
    },
    {
      "inputs": [
        {
          "internalType": "address",
          "name": "from",
          "type": "address"
        },
        {
          "internalType": "address",
          "name": "to",
          "type": "address"
        },
        {
          "internalType": "uint256",
          "name": "tokenId",
          "type": "uint256"
        }
      ],
      "name": "safeTransferFrom",
      "outputs": [],
      "stateMutability": "nonpayable",
      "type": "function"
    },
    {
      "inputs": [
        {
          "internalType": "address",
          "name": "from",
          "type": "address"
        },
        {
          "internalType": "address",
          "name": "to",
          "type": "address"
        },
        {
          "internalType": "uint256",
          "name": "tokenId",
          "type": "uint256"
        },
        {
          "internalType": "bytes",
          "name": "data",
          "type": "bytes"
        }
      ],
      "name": "safeTransferFrom",
      "outputs": [],
      "stateMutability": "nonpayable",
      "type": "function"
    },
    {
      "inputs": [
        {
          "internalType": "address",
          "name": "operator",
          "type": "address"
        },
        {
          "internalType": "bool",
          "name": "approved",
          "type": "bool"
        }
      ],
      "name": "setApprovalForAll",
      "outputs": [],
      "stateMutability": "nonpayable",
      "type": "function"
    },
    {
      "inputs": [
        {
          "internalType": "bytes4",
          "name": "interfaceId",
          "type": "bytes4"
        }
      ],
      "name": "supportsInterface",
      "outputs": [
        {
          "internalType": "bool",
          "name": "",
          "type": "bool"
        }
      ],
      "stateMutability": "view",
      "type": "function"
    },
    {
      "inputs": [],
      "name": "symbol",
      "outputs": [
        {
          "internalType": "string",
          "name": "",
          "type": "string"
        }
      ],
      "stateMutability": "view",
      "type": "function"
    },
    {
      "inputs": [
        {
          "internalType": "uint256",
          "name": "tokenId",
          "type": "uint256"
        }
      ],
      "name": "tokenURI",
      "outputs": [
        {
          "internalType": "string",
          "name": "",
          "type": "string"
        }
      ],
      "stateMutability": "view",
      "type": "function"
    },
    {
      "inputs": [
        {
          "internalType": "address",
          "name": "from",
          "type": "address"
        },
        {
          "internalType": "address",
          "name": "to",
          "type": "address"
        },
        {
          "internalType": "uint256",
          "name": "tokenId",
          "type": "uint256"
        }
      ],
      "name": "transferFrom",
      "outputs": [],
      "stateMutability": "nonpayable",
      "type": "function"
    }
  ],
  "bytecode": "0x6080604052604051806101c00160405280610187815260200162005c5f610187913960089081620000319190620012d2565b506040518061022001604052806101f0815260200162005a6f6101f09139600990816200005f9190620012d2565b506040518061016001604052806040518060400160405280600781526020017f233662373936320000000000000000000000000000000000000000000000000081525081526020016040518060400160405280600781526020017f233665363638300000000000000000000000000000000000000000000000000081525081526020016040518060400160405280600781526020017f233736323537350000000000000000000000000000000000000000000000000081525081526020016040518060400160405280600781526020017f236634613236310000000000000000000000000000000000000000000000000081525081526020016040518060400160405280600781526020017f233030626163360000000000000000000000000000000000000000000000000081525081526020016040518060400160405280600781526020017f233133343335310000000000000000000000000000000000000000000000000081525081526020016040518060400160405280600381526020017f726564000000000000000000000000000000000000000000000000000000000081525081526020016040518060400160405280600781526020017f233038433241380000000000000000000000000000000000000000000000000081525081526020016040518060400160405280600681526020017f79656c6c6f77000000000000000000000000000000000000000000000000000081525081526020016040518060400160405280600481526020017f626c75650000000000000000000000000000000000000000000000000000000081525081526020016040518060400160405280600581526020017f677265656e000000000000000000000000000000000000000000000000000000815250815250600a90600b6200030592919062000deb565b50604051806101c001604052806040518060400160405280600281526020017f414100000000000000000000000000000000000000000000000000000000000081525081526020016040518060400160405280600281526020017f424200000000000000000000000000000000000000000000000000000000000081525081526020016040518060400160405280600281526020017f434300000000000000000000000000000000000000000000000000000000000081525081526020016040518060400160405280600181526020017f440000000000000000000000000000000000000000000000000000000000000081525081526020016040518060400160405280600181526020017f450000000000000000000000000000000000000000000000000000000000000081525081526020016040518060400160405280600181526020017f460000000000000000000000000000000000000000000000000000000000000081525081526020016040518060400160405280600181526020017f470000000000000000000000000000000000000000000000000000000000000081525081526020016040518060400160405280600181526020017f480000000000000000000000000000000000000000000000000000000000000081525081526020016040518060400160405280600181526020017f490000000000000000000000000000000000000000000000000000000000000081525081526020016040518060400160405280600181526020017f4a0000000000000000000000000000000000000000000000000000000000000081525081526020016040518060400160405280600181526020017f4b0000000000000000000000000000000000000000000000000000000000000081525081526020016040518060400160405280600181526020017f4c0000000000000000000000000000000000000000000000000000000000000081525081526020016040518060400160405280600181526020017f4d0000000000000000000000000000000000000000000000000000000000000081525081526020016040518060400160405280600181526020017f4e00000000000000000000000000000000000000000000000000000000000000815250815250600b90600e6200065c92919062000e4b565b506040518061014001604052806040518060400160405280600181526020017f300000000000000000000000000000000000000000000000000000000000000081525081526020016040518060400160405280600181526020017f310000000000000000000000000000000000000000000000000000000000000081525081526020016040518060400160405280600181526020017f320000000000000000000000000000000000000000000000000000000000000081525081526020016040518060400160405280600181526020017f330000000000000000000000000000000000000000000000000000000000000081525081526020016040518060400160405280600181526020017f340000000000000000000000000000000000000000000000000000000000000081525081526020016040518060400160405280600181526020017f350000000000000000000000000000000000000000000000000000000000000081525081526020016040518060400160405280600181526020017f360000000000000000000000000000000000000000000000000000000000000081525081526020016040518060400160405280600181526020017f370000000000000000000000000000000000000000000000000000000000000081525081526020016040518060400160405280600181526020017f380000000000000000000000000000000000000000000000000000000000000081525081526020016040518060400160405280600181526020017f3900000000000000000000000000000000000000000000000000000000000000815250815250600c90600a620008c792919062000eab565b506040518061010001604052806040518060400160405280600181526020017f580000000000000000000000000000000000000000000000000000000000000081525081526020016040518060400160405280600181526020017f590000000000000000000000000000000000000000000000000000000000000081525081526020016040518060400160405280600181526020017f5a0000000000000000000000000000000000000000000000000000000000000081525081526020016040518060400160405280600281526020017f4f4f00000000000000000000000000000000000000000000000000000000000081525081526020016040518060400160405280600281526020017f505000000000000000000000000000000000000000000000000000000000000081525081526020016040518060400160405280600281526020017f515100000000000000000000000000000000000000000000000000000000000081525081526020016040518060400160405280600281526020017f525200000000000000000000000000000000000000000000000000000000000081525081526020016040518060400160405280600281526020017f5353000000000000000000000000000000000000000000000000000000000000815250815250600d90600862000abc92919062000f0b565b506040518060c001604052806040518060400160405280600381526020017f726564000000000000000000000000000000000000000000000000000000000081525081526020016040518060400160405280600781526020017f233038433241380000000000000000000000000000000000000000000000000081525081526020016040518060400160405280600581526020017f626c61636b00000000000000000000000000000000000000000000000000000081525081526020016040518060400160405280600681526020017f79656c6c6f77000000000000000000000000000000000000000000000000000081525081526020016040518060400160405280600481526020017f626c75650000000000000000000000000000000000000000000000000000000081525081526020016040518060400160405280600581526020017f677265656e000000000000000000000000000000000000000000000000000000815250815250600e90600662000c3a92919062000f6b565b5034801562000c4857600080fd5b506040518060400160405280600c81526020017f4d6f626f776f726b204e465400000000000000000000000000000000000000008152506040518060400160405280600881526020017f4d6f626f776f726b000000000000000000000000000000000000000000000000815250816000908162000cc69190620012d2565b50806001908162000cd89190620012d2565b50505062000d216040518060400160405280601f81526020017f455243373231204e465420636f6e747261637420636f6e73747275637465640081525062000d2760201b60201c565b6200146c565b62000dc78160405160240162000d3e919062001448565b6040516020818303038152906040527f41304fac000000000000000000000000000000000000000000000000000000007bffffffffffffffffffffffffffffffffffffffffffffffffffffffff19166020820180517bffffffffffffffffffffffffffffffffffffffffffffffffffffffff838183161783525050505062000dca60201b60201c565b50565b60006a636f6e736f6c652e6c6f679050600080835160208501845afa505050565b82805482825590600052602060002090810192821562000e38579160200282015b8281111562000e3757825182908162000e269190620012d2565b509160200191906001019062000e0c565b5b50905062000e47919062000fcb565b5090565b82805482825590600052602060002090810192821562000e98579160200282015b8281111562000e9757825182908162000e869190620012d2565b509160200191906001019062000e6c565b5b50905062000ea7919062000fcb565b5090565b82805482825590600052602060002090810192821562000ef8579160200282015b8281111562000ef757825182908162000ee69190620012d2565b509160200191906001019062000ecc565b5b50905062000f07919062000fcb565b5090565b82805482825590600052602060002090810192821562000f58579160200282015b8281111562000f5757825182908162000f469190620012d2565b509160200191906001019062000f2c565b5b50905062000f67919062000fcb565b5090565b82805482825590600052602060002090810192821562000fb8579160200282015b8281111562000fb757825182908162000fa69190620012d2565b509160200191906001019062000f8c565b5b50905062000fc7919062000fcb565b5090565b5b8082111562000fef576000818162000fe5919062000ff3565b5060010162000fcc565b5090565b5080546200100190620010c1565b6000825580601f1062001015575062001036565b601f01602090049060005260206000209081019062001035919062001039565b5b50565b5b80821115620010545760008160009055506001016200103a565b5090565b600081519050919050565b7f4e487b7100000000000000000000000000000000000000000000000000000000600052604160045260246000fd5b7f4e487b7100000000000000000000000000000000000000000000000000000000600052602260045260246000fd5b60006002820490506001821680620010da57607f821691505b602082108103620010f057620010ef62001092565b5b50919050565b60008190508160005260206000209050919050565b60006020601f8301049050919050565b600082821b905092915050565b6000600883026200115a7fffffffffffffffffffffffffffffffffffffffffffffffffffffffffffffffff826200111b565b6200116686836200111b565b95508019841693508086168417925050509392505050565b6000819050919050565b6000819050919050565b6000620011b3620011ad620011a7846200117e565b62001188565b6200117e565b9050919050565b6000819050919050565b620011cf8362001192565b620011e7620011de82620011ba565b84845462001128565b825550505050565b600090565b620011fe620011ef565b6200120b818484620011c4565b505050565b5b81811015620012335762001227600082620011f4565b60018101905062001211565b5050565b601f82111562001282576200124c81620010f6565b62001257846200110b565b8101602085101562001267578190505b6200127f62001276856200110b565b83018262001210565b50505b505050565b600082821c905092915050565b6000620012a76000198460080262001287565b1980831691505092915050565b6000620012c2838362001294565b9150826002028217905092915050565b620012dd8262001058565b67ffffffffffffffff811115620012f957620012f862001063565b5b620013058254620010c1565b6200131282828562001237565b600060209050601f8311600181146200134a576000841562001335578287015190505b620013418582620012b4565b865550620013b1565b601f1984166200135a86620010f6565b60005b8281101562001384578489015182556001820191506020850194506020810190506200135d565b86831015620013a45784890151620013a0601f89168262001294565b8355505b6001600288020188555050505b505050505050565b600082825260208201905092915050565b60005b83811015620013ea578082015181840152602081019050620013cd565b60008484015250505050565b6000601f19601f8301169050919050565b6000620014148262001058565b620014208185620013b9565b935062001432818560208601620013ca565b6200143d81620013f6565b840191505092915050565b6000602082019050818103600083015262001464818462001407565b905092915050565b6145f3806200147c6000396000f3fe608060405234801561001057600080fd5b50600436106101215760003560e01c806370a08231116100ad578063b88d4fde11610071578063b88d4fde14610340578063c575757a1461035c578063c87b56dd1461038c578063de9d132f146103bc578063e985e9c5146103c657610121565b806370a082311461028857806395d89b41146102b8578063a22cb465146102d6578063b187301f146102f2578063b30b23321461032257610121565b806323b872dd116100f457806323b872dd146101c05780632de38d68146101dc57806342842e0e1461020c578063514dc8c6146102285780636352211e1461025857610121565b806301ffc9a71461012657806306fdde0314610156578063081812fc14610174578063095ea7b3146101a4575b600080fd5b610140600480360381019061013b919061249d565b6103f6565b60405161014d91906124e5565b60405180910390f35b61015e610457565b60405161016b9190612590565b60405180910390f35b61018e600480360381019061018991906125e8565b6104e9565b60405161019b9190612656565b60405180910390f35b6101be60048036038101906101b9919061269d565b61052f565b005b6101da60048036038101906101d591906126dd565b610646565b005b6101f660048036038101906101f191906125e8565b6106a6565b6040516102039190612590565b60405180910390f35b610226600480360381019061022191906126dd565b61079e565b005b610242600480360381019061023d91906125e8565b6107be565b60405161024f9190612590565b60405180910390f35b610272600480360381019061026d91906125e8565b6108b6565b60405161027f9190612656565b60405180910390f35b6102a2600480360381019061029d9190612730565b61093c565b6040516102af919061276c565b60405180910390f35b6102c06109f3565b6040516102cd9190612590565b60405180910390f35b6102f060048036038101906102eb91906127b3565b610a85565b005b61030c600480360381019061030791906125e8565b610a9b565b6040516103199190612590565b60405180910390f35b61032a610b93565b6040516103379190612590565b60405180910390f35b61035a60048036038101906103559190612928565b610bf6565b005b610376600480360381019061037191906125e8565b610c58565b6040516103839190612590565b60405180910390f35b6103a660048036038101906103a191906125e8565b610d50565b6040516103b39190612590565b60405180910390f35b6103c4610e62565b005b6103e060048036038101906103db91906129ab565b61109a565b6040516103ed91906124e5565b60405180910390f35b6000634906490660e01b7bffffffffffffffffffffffffffffffffffffffffffffffffffffffff1916827bffffffffffffffffffffffffffffffffffffffffffffffffffffffff19161480610450575061044f8261112e565b5b9050919050565b60606000805461046690612a1a565b80601f016020809104026020016040519081016040528092919081815260200182805461049290612a1a565b80156104df5780601f106104b4576101008083540402835291602001916104df565b820191906000526020600020905b8154815290600101906020018083116104c257829003601f168201915b5050505050905090565b60006104f482611210565b6004600083815260200190815260200160002060009054906101000a900473ffffffffffffffffffffffffffffffffffffffff169050919050565b600061053a826108b6565b90508073ffffffffffffffffffffffffffffffffffffffff168373ffffffffffffffffffffffffffffffffffffffff16036105aa576040517f08c379a00000000000000000000000000000000000000000000000000000000081526004016105a190612abd565b60405180910390fd5b8073ffffffffffffffffffffffffffffffffffffffff166105c961125b565b73ffffffffffffffffffffffffffffffffffffffff1614806105f857506105f7816105f261125b565b61109a565b5b610637576040517f08c379a000000000000000000000000000000000000000000000000000000000815260040161062e90612b4f565b60405180910390fd5b6106418383611263565b505050565b61065761065161125b565b8261131c565b610696576040517f08c379a000000000000000000000000000000000000000000000000000000000815260040161068d90612be1565b60405180910390fd5b6106a18383836113b1565b505050565b606060006106da6106b6846116aa565b6040516020016106c69190612c89565b604051602081830303815290604052611778565b9050600b80549050816106ed9190612cda565b9050600b818154811061070357610702612d0b565b5b90600052602060002001805461071890612a1a565b80601f016020809104026020016040519081016040528092919081815260200182805461074490612a1a565b80156107915780601f1061076657610100808354040283529160200191610791565b820191906000526020600020905b81548152906001019060200180831161077457829003601f168201915b5050505050915050919050565b6107b983838360405180602001604052806000815250610bf6565b505050565b606060006107f26107ce846116aa565b6040516020016107de9190612d86565b604051602081830303815290604052611778565b9050600a80549050816108059190612cda565b9050600a818154811061081b5761081a612d0b565b5b90600052602060002001805461083090612a1a565b80601f016020809104026020016040519081016040528092919081815260200182805461085c90612a1a565b80156108a95780601f1061087e576101008083540402835291602001916108a9565b820191906000526020600020905b81548152906001019060200180831161088c57829003601f168201915b5050505050915050919050565b6000806108c2836117ab565b9050600073ffffffffffffffffffffffffffffffffffffffff168173ffffffffffffffffffffffffffffffffffffffff1603610933576040517f08c379a000000000000000000000000000000000000000000000000000000000815260040161092a90612df4565b60405180910390fd5b80915050919050565b60008073ffffffffffffffffffffffffffffffffffffffff168273ffffffffffffffffffffffffffffffffffffffff16036109ac576040517f08c379a00000000000000000000000000000000000000000000000000000000081526004016109a390612e86565b60405180910390fd5b600360008373ffffffffffffffffffffffffffffffffffffffff1673ffffffffffffffffffffffffffffffffffffffff168152602001908152602001600020549050919050565b606060018054610a0290612a1a565b80601f0160208091040260200160405190810160405280929190818152602001828054610a2e90612a1a565b8015610a7b5780601f10610a5057610100808354040283529160200191610a7b565b820191906000526020600020905b815481529060010190602001808311610a5e57829003601f168201915b5050505050905090565b610a97610a9061125b565b83836117e8565b5050565b60606000610acf610aab846116aa565b604051602001610abb9190612ef2565b604051602081830303815290604052611778565b9050600c8054905081610ae29190612cda565b9050600c8181548110610af857610af7612d0b565b5b906000526020600020018054610b0d90612a1a565b80601f0160208091040260200160405190810160405280929190818152602001828054610b3990612a1a565b8015610b865780601f10610b5b57610100808354040283529160200191610b86565b820191906000526020600020905b815481529060010190602001808311610b6957829003601f168201915b5050505050915050919050565b6060610bd36040518060400160405280601181526020017f47656e6572617465205356472044617461000000000000000000000000000000815250611954565b604051602001610be2906138cb565b604051602081830303815290604052905090565b610c07610c0161125b565b8361131c565b610c46576040517f08c379a0000000000000000000000000000000000000000000000000000000008152600401610c3d90612be1565b60405180910390fd5b610c52848484846119ed565b50505050565b60606000610c8c610c68846116aa565b604051602001610c789190613937565b604051602081830303815290604052611778565b9050600d8054905081610c9f9190612cda565b9050600d8181548110610cb557610cb4612d0b565b5b906000526020600020018054610cca90612a1a565b80601f0160208091040260200160405190810160405280929190818152602001828054610cf690612a1a565b8015610d435780601f10610d1857610100808354040283529160200191610d43565b820191906000526020600020905b815481529060010190602001808311610d2657829003601f168201915b5050505050915050919050565b6060610d5b82611210565b6000600660008481526020019081526020016000208054610d7b90612a1a565b80601f0160208091040260200160405190810160405280929190818152602001828054610da790612a1a565b8015610df45780601f10610dc957610100808354040283529160200191610df4565b820191906000526020600020905b815481529060010190602001808311610dd757829003601f168201915b505050505090506000610e05611a49565b90506000815103610e1a578192505050610e5d565b600082511115610e4f578082604051602001610e37929190613959565b60405160208183030381529060405292505050610e5d565b610e5884611a60565b925050505b919050565b6000610e6e6007611ac8565b90506000610e7b826106a6565b90506000610e8883610a9b565b90506000610e9584610c58565b90506000838383604051602001610eae939291906139c9565b60405160208183030381529060405290506000610eca866107be565b905060006008826009604051602001610ee593929190613a9d565b60405160208183030381529060405290506000610f2a84610f0584611ad6565b604051602001610f16929190613c24565b604051602081830303815290604052611ad6565b9050600081604051602001610f3f9190613c69565b6040516020818303038152906040529050610f8e6040518060400160405280601581526020017f0a2d2d2d2d2d2d2d2d2d2d2d2d2d2d2d2d2d2d2d2d0000000000000000000000815250611954565b610f9781611954565b610fbf83604051602001610fab9190613cd7565b604051602081830303815290604052611954565b610ffd6040518060400160405280601581526020017f2d2d2d2d2d2d2d2d2d2d2d2d2d2d2d2d2d2d2d2d0a0000000000000000000000815250611954565b611007338a611c6d565b6110298960405180606001604052806033815260200161452660339139611c8b565b6110336007611d2f565b611056604051806060016040528060258152602001614559602591398a33611d45565b7febb98688741ffa4c7589bf325de30cf7becb63de567842e1ccdb6cb949fdc82c338a604051611087929190613cf9565b60405180910390a1505050505050505050565b6000600560008473ffffffffffffffffffffffffffffffffffffffff1673ffffffffffffffffffffffffffffffffffffffff16815260200190815260200160002060008373ffffffffffffffffffffffffffffffffffffffff1673ffffffffffffffffffffffffffffffffffffffff16815260200190815260200160002060009054906101000a900460ff16905092915050565b60007f80ac58cd000000000000000000000000000000000000000000000000000000007bffffffffffffffffffffffffffffffffffffffffffffffffffffffff1916827bffffffffffffffffffffffffffffffffffffffffffffffffffffffff191614806111f957507f5b5e139f000000000000000000000000000000000000000000000000000000007bffffffffffffffffffffffffffffffffffffffffffffffffffffffff1916827bffffffffffffffffffffffffffffffffffffffffffffffffffffffff1916145b80611209575061120882611de4565b5b9050919050565b61121981611e4e565b611258576040517f08c379a000000000000000000000000000000000000000000000000000000000815260040161124f90612df4565b60405180910390fd5b50565b600033905090565b816004600083815260200190815260200160002060006101000a81548173ffffffffffffffffffffffffffffffffffffffff021916908373ffffffffffffffffffffffffffffffffffffffff160217905550808273ffffffffffffffffffffffffffffffffffffffff166112d6836108b6565b73ffffffffffffffffffffffffffffffffffffffff167f8c5be1e5ebec7d5bd14f71427d1e84f3dd0314c0f7b2291e5b200ac8c7c3b92560405160405180910390a45050565b600080611328836108b6565b90508073ffffffffffffffffffffffffffffffffffffffff168473ffffffffffffffffffffffffffffffffffffffff16148061136a5750611369818561109a565b5b806113a857508373ffffffffffffffffffffffffffffffffffffffff16611390846104e9565b73ffffffffffffffffffffffffffffffffffffffff16145b91505092915050565b8273ffffffffffffffffffffffffffffffffffffffff166113d1826108b6565b73ffffffffffffffffffffffffffffffffffffffff1614611427576040517f08c379a000000000000000000000000000000000000000000000000000000000815260040161141e90613d94565b60405180910390fd5b600073ffffffffffffffffffffffffffffffffffffffff168273ffffffffffffffffffffffffffffffffffffffff1603611496576040517f08c379a000000000000000000000000000000000000000000000000000000000815260040161148d90613e26565b60405180910390fd5b6114a38383836001611e8f565b8273ffffffffffffffffffffffffffffffffffffffff166114c3826108b6565b73ffffffffffffffffffffffffffffffffffffffff1614611519576040517f08c379a000000000000000000000000000000000000000000000000000000000815260040161151090613d94565b60405180910390fd5b6004600082815260200190815260200160002060006101000a81549073ffffffffffffffffffffffffffffffffffffffff02191690556001600360008573ffffffffffffffffffffffffffffffffffffffff1673ffffffffffffffffffffffffffffffffffffffff168152602001908152602001600020600082825403925050819055506001600360008473ffffffffffffffffffffffffffffffffffffffff1673ffffffffffffffffffffffffffffffffffffffff16815260200190815260200160002060008282540192505081905550816002600083815260200190815260200160002060006101000a81548173ffffffffffffffffffffffffffffffffffffffff021916908373ffffffffffffffffffffffffffffffffffffffff160217905550808273ffffffffffffffffffffffffffffffffffffffff168473ffffffffffffffffffffffffffffffffffffffff167fddf252ad1be2c89b69c2b068fc378daa952ba7f163c4a11628f55a4df523b3ef60405160405180910390a46116a58383836001611e95565b505050565b6060600060016116b984611e9b565b01905060008167ffffffffffffffff8111156116d8576116d76127fd565b5b6040519080825280601f01601f19166020018201604052801561170a5781602001600182028036833780820191505090505b509050600082602001820190505b60011561176d578080600190039150507f3031323334353637383961626364656600000000000000000000000000000000600a86061a8153600a858161176157611760612cab565b5b04945060008503611718575b819350505050919050565b60008160405160200161178b9190613e46565b6040516020818303038152906040528051906020012060001c9050919050565b60006002600083815260200190815260200160002060009054906101000a900473ffffffffffffffffffffffffffffffffffffffff169050919050565b8173ffffffffffffffffffffffffffffffffffffffff168373ffffffffffffffffffffffffffffffffffffffff1603611856576040517f08c379a000000000000000000000000000000000000000000000000000000000815260040161184d90613ea9565b60405180910390fd5b80600560008573ffffffffffffffffffffffffffffffffffffffff1673ffffffffffffffffffffffffffffffffffffffff16815260200190815260200160002060008473ffffffffffffffffffffffffffffffffffffffff1673ffffffffffffffffffffffffffffffffffffffff16815260200190815260200160002060006101000a81548160ff0219169083151502179055508173ffffffffffffffffffffffffffffffffffffffff168373ffffffffffffffffffffffffffffffffffffffff167f17307eab39ab6107e8899845ad3d59bd9653f200f220920489ca2b5937696c318360405161194791906124e5565b60405180910390a3505050565b6119ea816040516024016119689190612590565b6040516020818303038152906040527f41304fac000000000000000000000000000000000000000000000000000000007bffffffffffffffffffffffffffffffffffffffffffffffffffffffff19166020820180517bffffffffffffffffffffffffffffffffffffffffffffffffffffffff8381831617835250505050611fee565b50565b6119f88484846113b1565b611a048484848461200f565b611a43576040517f08c379a0000000000000000000000000000000000000000000000000000000008152600401611a3a90613f3b565b60405180910390fd5b50505050565b606060405180602001604052806000815250905090565b6060611a6b82611210565b6000611a75611a49565b90506000815111611a955760405180602001604052806000815250611ac0565b80611a9f846116aa565b604051602001611ab0929190613959565b6040516020818303038152906040525b915050919050565b600081600001549050919050565b606060008251905060008103611afe5760405180602001604052806000815250915050611c68565b60006003600283611b0f9190613f8a565b611b199190613fbe565b6004611b259190613fef565b90506000602082611b369190613f8a565b67ffffffffffffffff811115611b4f57611b4e6127fd565b5b6040519080825280601f01601f191660200182016040528015611b815781602001600182028036833780820191505090505b509050600060405180606001604052806040815260200161457e604091399050600181016020830160005b86811015611c255760038101905062ffffff818a015116603f8160121c168401518060081b905060ff603f83600c1c1686015116810190508060081b905060ff603f8360061c1686015116810190508060081b905060ff603f831686015116810190508060e01b90508084526004840193505050611bac565b506003860660018114611c3f5760028114611c4f57611c5a565b613d3d60f01b6002830352611c5a565b603d60f81b60018303525b508484525050819450505050505b919050565b611c87828260405180602001604052806000815250612196565b5050565b611c9482611e4e565b611cd3576040517f08c379a0000000000000000000000000000000000000000000000000000000008152600401611cca906140a3565b60405180910390fd5b80600660008481526020019081526020016000209081611cf3919061425a565b507ff8e1a15aba9398e019f0b49df1a4fde98ee17ae345cb5f6b5e2c27f5033e8ce782604051611d23919061276c565b60405180910390a15050565b6001816000016000828254019250508190555050565b611ddf838383604051602401611d5d9392919061432c565b6040516020818303038152906040527f1c7ec448000000000000000000000000000000000000000000000000000000007bffffffffffffffffffffffffffffffffffffffffffffffffffffffff19166020820180517bffffffffffffffffffffffffffffffffffffffffffffffffffffffff8381831617835250505050611fee565b505050565b60007f01ffc9a7000000000000000000000000000000000000000000000000000000007bffffffffffffffffffffffffffffffffffffffffffffffffffffffff1916827bffffffffffffffffffffffffffffffffffffffffffffffffffffffff1916149050919050565b60008073ffffffffffffffffffffffffffffffffffffffff16611e70836117ab565b73ffffffffffffffffffffffffffffffffffffffff1614159050919050565b50505050565b50505050565b600080600090507a184f03e93ff9f4daa797ed6e38ed64bf6a1f0100000000000000008310611ef9577a184f03e93ff9f4daa797ed6e38ed64bf6a1f0100000000000000008381611eef57611eee612cab565b5b0492506040810190505b6d04ee2d6d415b85acef81000000008310611f36576d04ee2d6d415b85acef81000000008381611f2c57611f2b612cab565b5b0492506020810190505b662386f26fc100008310611f6557662386f26fc100008381611f5b57611f5a612cab565b5b0492506010810190505b6305f5e1008310611f8e576305f5e1008381611f8457611f83612cab565b5b0492506008810190505b6127108310611fb3576127108381611fa957611fa8612cab565b5b0492506004810190505b60648310611fd65760648381611fcc57611fcb612cab565b5b0492506002810190505b600a8310611fe5576001810190505b80915050919050565b60006a636f6e736f6c652e6c6f679050600080835160208501845afa505050565b60006120308473ffffffffffffffffffffffffffffffffffffffff166121f1565b15612189578373ffffffffffffffffffffffffffffffffffffffff1663150b7a0261205961125b565b8786866040518563ffffffff1660e01b815260040161207b94939291906143bf565b6020604051808303816000875af19250505080156120b757506040513d601f19601f820116820180604052508101906120b49190614420565b60015b612139573d80600081146120e7576040519150601f19603f3d011682016040523d82523d6000602084013e6120ec565b606091505b506000815103612131576040517f08c379a000000000000000000000000000000000000000000000000000000000815260040161212890613f3b565b60405180910390fd5b805181602001fd5b63150b7a0260e01b7bffffffffffffffffffffffffffffffffffffffffffffffffffffffff1916817bffffffffffffffffffffffffffffffffffffffffffffffffffffffff19161491505061218e565b600190505b949350505050565b6121a08383612214565b6121ad600084848461200f565b6121ec576040517f08c379a00000000000000000000000000000000000000000000000000000000081526004016121e390613f3b565b60405180910390fd5b505050565b6000808273ffffffffffffffffffffffffffffffffffffffff163b119050919050565b600073ffffffffffffffffffffffffffffffffffffffff168273ffffffffffffffffffffffffffffffffffffffff1603612283576040517f08c379a000000000000000000000000000000000000000000000000000000000815260040161227a90614499565b60405180910390fd5b61228c81611e4e565b156122cc576040517f08c379a00000000000000000000000000000000000000000000000000000000081526004016122c390614505565b60405180910390fd5b6122da600083836001611e8f565b6122e381611e4e565b15612323576040517f08c379a000000000000000000000000000000000000000000000000000000000815260040161231a90614505565b60405180910390fd5b6001600360008473ffffffffffffffffffffffffffffffffffffffff1673ffffffffffffffffffffffffffffffffffffffff16815260200190815260200160002060008282540192505081905550816002600083815260200190815260200160002060006101000a81548173ffffffffffffffffffffffffffffffffffffffff021916908373ffffffffffffffffffffffffffffffffffffffff160217905550808273ffffffffffffffffffffffffffffffffffffffff16600073ffffffffffffffffffffffffffffffffffffffff167fddf252ad1be2c89b69c2b068fc378daa952ba7f163c4a11628f55a4df523b3ef60405160405180910390a461242d600083836001611e95565b5050565b6000604051905090565b600080fd5b600080fd5b60007fffffffff0000000000000000000000000000000000000000000000000000000082169050919050565b61247a81612445565b811461248557600080fd5b50565b60008135905061249781612471565b92915050565b6000602082840312156124b3576124b261243b565b5b60006124c184828501612488565b91505092915050565b60008115159050919050565b6124df816124ca565b82525050565b60006020820190506124fa60008301846124d6565b92915050565b600081519050919050565b600082825260208201905092915050565b60005b8381101561253a57808201518184015260208101905061251f565b60008484015250505050565b6000601f19601f8301169050919050565b600061256282612500565b61256c818561250b565b935061257c81856020860161251c565b61258581612546565b840191505092915050565b600060208201905081810360008301526125aa8184612557565b905092915050565b6000819050919050565b6125c5816125b2565b81146125d057600080fd5b50565b6000813590506125e2816125bc565b92915050565b6000602082840312156125fe576125fd61243b565b5b600061260c848285016125d3565b91505092915050565b600073ffffffffffffffffffffffffffffffffffffffff82169050919050565b600061264082612615565b9050919050565b61265081612635565b82525050565b600060208201905061266b6000830184612647565b92915050565b61267a81612635565b811461268557600080fd5b50565b60008135905061269781612671565b92915050565b600080604083850312156126b4576126b361243b565b5b60006126c285828601612688565b92505060206126d3858286016125d3565b9150509250929050565b6000806000606084860312156126f6576126f561243b565b5b600061270486828701612688565b935050602061271586828701612688565b9250506040612726868287016125d3565b9150509250925092565b6000602082840312156127465761274561243b565b5b600061275484828501612688565b91505092915050565b612766816125b2565b82525050565b6000602082019050612781600083018461275d565b92915050565b612790816124ca565b811461279b57600080fd5b50565b6000813590506127ad81612787565b92915050565b600080604083850312156127ca576127c961243b565b5b60006127d885828601612688565b92505060206127e98582860161279e565b9150509250929050565b600080fd5b600080fd5b7f4e487b7100000000000000000000000000000000000000000000000000000000600052604160045260246000fd5b61283582612546565b810181811067ffffffffffffffff82111715612854576128536127fd565b5b80604052505050565b6000612867612431565b9050612873828261282c565b919050565b600067ffffffffffffffff821115612893576128926127fd565b5b61289c82612546565b9050602081019050919050565b82818337600083830152505050565b60006128cb6128c684612878565b61285d565b9050828152602081018484840111156128e7576128e66127f8565b5b6128f28482856128a9565b509392505050565b600082601f83011261290f5761290e6127f3565b5b813561291f8482602086016128b8565b91505092915050565b600080600080608085870312156129425761294161243b565b5b600061295087828801612688565b945050602061296187828801612688565b9350506040612972878288016125d3565b925050606085013567ffffffffffffffff81111561299357612992612440565b5b61299f878288016128fa565b91505092959194509250565b600080604083850312156129c2576129c161243b565b5b60006129d085828601612688565b92505060206129e185828601612688565b9150509250929050565b7f4e487b7100000000000000000000000000000000000000000000000000000000600052602260045260246000fd5b60006002820490506001821680612a3257607f821691505b602082108103612a4557612a446129eb565b5b50919050565b7f4552433732313a20617070726f76616c20746f2063757272656e74206f776e6560008201527f7200000000000000000000000000000000000000000000000000000000000000602082015250565b6000612aa760218361250b565b9150612ab282612a4b565b604082019050919050565b60006020820190508181036000830152612ad681612a9a565b9050919050565b7f4552433732313a20617070726f76652063616c6c6572206973206e6f7420746f60008201527f6b656e206f776e6572206f7220617070726f76656420666f7220616c6c000000602082015250565b6000612b39603d8361250b565b9150612b4482612add565b604082019050919050565b60006020820190508181036000830152612b6881612b2c565b9050919050565b7f4552433732313a2063616c6c6572206973206e6f7420746f6b656e206f776e6560008201527f72206f7220617070726f76656400000000000000000000000000000000000000602082015250565b6000612bcb602d8361250b565b9150612bd682612b6f565b604082019050919050565b60006020820190508181036000830152612bfa81612bbe565b9050919050565b600081905092915050565b7f46495253545f574f524400000000000000000000000000000000000000000000600082015250565b6000612c42600a83612c01565b9150612c4d82612c0c565b600a82019050919050565b6000612c6382612500565b612c6d8185612c01565b9350612c7d81856020860161251c565b80840191505092915050565b6000612c9482612c35565b9150612ca08284612c58565b915081905092915050565b7f4e487b7100000000000000000000000000000000000000000000000000000000600052601260045260246000fd5b6000612ce5826125b2565b9150612cf0836125b2565b925082612d0057612cff612cab565b5b828206905092915050565b7f4e487b7100000000000000000000000000000000000000000000000000000000600052603260045260246000fd5b7f434f4c4f52000000000000000000000000000000000000000000000000000000600082015250565b6000612d70600583612c01565b9150612d7b82612d3a565b600582019050919050565b6000612d9182612d63565b9150612d9d8284612c58565b915081905092915050565b7f4552433732313a20696e76616c696420746f6b656e2049440000000000000000600082015250565b6000612dde60188361250b565b9150612de982612da8565b602082019050919050565b60006020820190508181036000830152612e0d81612dd1565b9050919050565b7f4552433732313a2061646472657373207a65726f206973206e6f74206120766160008201527f6c6964206f776e65720000000000000000000000000000000000000000000000602082015250565b6000612e7060298361250b565b9150612e7b82612e14565b604082019050919050565b60006020820190508181036000830152612e9f81612e63565b9050919050565b7f5345434f4e445f574f5244000000000000000000000000000000000000000000600082015250565b6000612edc600b83612c01565b9150612ee782612ea6565b600b82019050919050565b6000612efd82612ecf565b9150612f098284612c58565b915081905092915050565b7f646174613a6170706c69636174696f6e2f6a736f6e3b6261736536342c000000600082015250565b6000612f4a601d83612c01565b9150612f5582612f14565b601d82019050919050565b7f65776f6749434167496d3568625755694f6941695258427059307876636d524960008201527f5957316964584a6e5a5849694c416f6749434167496d526c63324e796158423060208201527f61573975496a6f67496b4675494535475643426d636d39744948526f5a53426f60408201527f6157646f62486b6759574e6a624746706257566b49484e78645746795a53426a60608201527f623278735a574e30615739754969774b4943416749434a706257466e5a53493660808201527f49434a6b595852684f6d6c745957646c4c334e325a79743462577737596d467a60a08201527f5a5459304c434251513056305446563463466b79566e566a4d6c55325355557860c08201527f536c5a444e48524d5644524c5545684f4d6c7035516a4e68563149775955517760e08201527f6155315551586c4f5345493053576c43623170586247356853464535535770466101008201527f64303171556e646c51306c6e5a47317362475177536e5a6c5244427054554e426101208201527f64306c455258644e616c466e54565242655535445357646c527a467a596d354e6101408201527f4f556c746144426b5345453254486b354d32517a5933566b656b3131596a4e4b6101608201527f626b78365358644e52454632597a4e61626b6c714e45744a51304534597a4e536101808201527f4e574a48565374446155466e53554e4264574d7a5558686c4d6c7077596b64336101a08201527f4e6b6b79576d3161626a424c53554e425a306c445158565a62555a36576c4e436101c08201527f4e306c48576e4269523363325355686b62324659556d785065554a74596a49316101e08201527f4d457858576d68695632787a5a5652765a324d79566e6c6856316b33535564616102008201527f646d4a755558526a4d6d7732576c52765a303155556e646c52484e6e5a6c46766102208201527f5a306c4564335a6a4d314931596b64564b304e70515764515345707357544e526102408201527f5a3251796247746b52326335535770466430314456576c4a523268735956646b6102608201527f623252454d476c4e56454633536c4e4a5a31707462484e6952444270575731346102808201527f61466b7963326c4d656a524c53554e424f475248566a526b5130493055464e4a6102a08201527f654570545357646c564442705431527262456c70516d706952305a3659336f776102c08201527f61566c74526e706155306c6e576b6335644746584e576869626c4630575731476102e08201527f656c70586548426962565535535731346246707555576c4a53464a735a5568526103008201527f64466c584e577068527a6c3555464e4b63317058576a424a616a5643596d31536103208201527f4e556c444d4764526257783157566331616d4658526e5651517a6b77576c686f6103408201527f4d46426e6232644a524868755355647361314254536b705a4d6a6c3153576f306103608201527f53306c445157644a524868715956684b616d4a485657645a4d326335535770566103808201527f654531705357645a4d32733553577056654531705357646a616a4270546c52466103a08201527f65556c70516e706b5347787a576c51776156707462484e6952473971576d704f6103c08201527f61566c55536d314a6154677251326c425a306c445154686a5230597759554e436103e08201527f616d4a48526e706a656a4270597a4e5265456c70516d74515530704f546b52426104008201527f4d4578716132644f52466b3053555256654531705158704f616b4631543164336104208201527f654531455933564e553046345455526a6455317051544a4e615452365446525a6104408201527f65557871546b314f564556355355524a656b35704e48704a5245307754576b306104608201527f4d6b6c455558644f557a517a5a576c4a646c426e6232644a5130466e554568436104808201527f614752485a32646b5345706f596d354f6257497a536e525155307035596a4e536104a08201527f614752485657394d56464578544770426430315451586c5056476431546d704a6104c08201527f4e556c455658684e557a51315431526e63456c70516d706952305a3659336f776104e08201527f61574d7a5558684a61554a7255464e4b546b31715654424d616c6c6e546b525a6105008201527f4d307871624739505247643154565a5a4d553555576d394d56476330544770476105208201527f4e6b6c704f4374446155466e53554e424f474e48526a426851304a71596b64476105408201527f656d4e364d476c6a4d31463453576c4361314254536b354f52454577544770726105608201527f5a30355556544a4a5246563454576c424d6b35715458564e563364345455526a6105808201527f645531544d48684e52474e3154576c424d6b31704e44424a52466c355447704f6105a08201527f623078544e4868555246563454576c424d3039455933564f65554636546b524a6105c08201527f6455357051544a4e5647643154544a33644578715258524d616b593253576b346105e08201527f4b304e705157644a51304534593064474d474644516a426a62555a31597a4a616106008201527f646d4e744d446c4a626b70325a4564474d4670545a33524f52465631545552426106208201527f65456c4559336c4f557a5236546d70525a30355552586c4d616b463654576c726106408201527f61556c48546e4e5a5745353655464e4b656d524552576c4a52314535535773776106608201527f4d6b39455258564e65554577546d706f623039455a33564e57466b3054304d306106808201527f654746444d445250517a52345a576c4a646c426e6232644a5130466e554568436106a08201527f614752485a32645a4d6e686f597a4e4e4f556c75546a424e55306c6e576b51776106c08201527f6156525556544e4f557a523553555256654531705154464e56456c6e546b52526106e08201527f4e4578715a484e4d564645795447706a5a30354557585650517a4178544770526107008201527f5a3035544e48704d56455634544770465a3031555258564e557a423154564d306107208201527f654578715258564e5530457954586b3065556c455758704d616b6c6e546d704e6107408201527f645531704d444a4e655452365a576c4a646c426e6232644a52486432576e6f306107608201527f533142444f58706b62574d72513263395053494b66513d3d000000000000000061078082015250565b60006138b461079883612c01565b91506138bf82612f60565b61079882019050919050565b60006138d682612f3d565b91506138e1826138a6565b9150819050919050565b7f54484952445f574f524400000000000000000000000000000000000000000000600082015250565b6000613921600a83612c01565b915061392c826138eb565b600a82019050919050565b600061394282613914565b915061394e8284612c58565b915081905092915050565b60006139658285612c58565b91506139718284612c58565b91508190509392505050565b7f4e46542053657269616c20233a00000000000000000000000000000000000000600082015250565b60006139b3600d83612c01565b91506139be8261397d565b600d82019050919050565b60006139d4826139a6565b91506139e08286612c58565b91506139ec8285612c58565b91506139f88284612c58565b9150819050949350505050565b60008190508160005260206000209050919050565b60008154613a2781612a1a565b613a318186612c01565b94506001821660008114613a4c5760018114613a6157613a94565b60ff1983168652811515820286019350613a94565b613a6a85613a05565b60005b83811015613a8c57815481890152600182019150602081019050613a6d565b838801955050505b50505092915050565b6000613aa98286613a1a565b9150613ab58285612c58565b9150613ac18284613a1a565b9150819050949350505050565b7f7b226e616d65223a202200000000000000000000000000000000000000000000600082015250565b6000613b04600a83612c01565b9150613b0f82613ace565b600a82019050919050565b7f222c20226465736372697074696f6e223a20224120686967686c79206163636c60008201527f61696d656420636f6c6c656374696f6e206f6620737175617265732e222c202260208201527f696d616765223a2022646174613a696d6167652f7376672b786d6c3b6261736560408201527f36342c0000000000000000000000000000000000000000000000000000000000606082015250565b6000613bc2606383612c01565b9150613bcd82613b1a565b606382019050919050565b7f227d000000000000000000000000000000000000000000000000000000000000600082015250565b6000613c0e600283612c01565b9150613c1982613bd8565b600282019050919050565b6000613c2f82613af7565b9150613c3b8285612c58565b9150613c4682613bb5565b9150613c528284612c58565b9150613c5d82613c01565b91508190509392505050565b6000613c7482612f3d565b9150613c808284612c58565b915081905092915050565b7f5356473a20200000000000000000000000000000000000000000000000000000600082015250565b6000613cc1600683612c01565b9150613ccc82613c8b565b600682019050919050565b6000613ce282613cb4565b9150613cee8284612c58565b915081905092915050565b6000604082019050613d0e6000830185612647565b613d1b602083018461275d565b9392505050565b7f4552433732313a207472616e736665722066726f6d20696e636f72726563742060008201527f6f776e6572000000000000000000000000000000000000000000000000000000602082015250565b6000613d7e60258361250b565b9150613d8982613d22565b604082019050919050565b60006020820190508181036000830152613dad81613d71565b9050919050565b7f4552433732313a207472616e7366657220746f20746865207a65726f2061646460008201527f7265737300000000000000000000000000000000000000000000000000000000602082015250565b6000613e1060248361250b565b9150613e1b82613db4565b604082019050919050565b60006020820190508181036000830152613e3f81613e03565b9050919050565b6000613e528284612c58565b915081905092915050565b7f4552433732313a20617070726f766520746f2063616c6c657200000000000000600082015250565b6000613e9360198361250b565b9150613e9e82613e5d565b602082019050919050565b60006020820190508181036000830152613ec281613e86565b9050919050565b7f4552433732313a207472616e7366657220746f206e6f6e20455243373231526560008201527f63656976657220696d706c656d656e7465720000000000000000000000000000602082015250565b6000613f2560328361250b565b9150613f3082613ec9565b604082019050919050565b60006020820190508181036000830152613f5481613f18565b9050919050565b7f4e487b7100000000000000000000000000000000000000000000000000000000600052601160045260246000fd5b6000613f95826125b2565b9150613fa0836125b2565b9250828201905080821115613fb857613fb7613f5b565b5b92915050565b6000613fc9826125b2565b9150613fd4836125b2565b925082613fe457613fe3612cab565b5b828204905092915050565b6000613ffa826125b2565b9150614005836125b2565b9250828202614013816125b2565b9150828204841483151761402a57614029613f5b565b5b5092915050565b7f45524337323155524953746f726167653a2055524920736574206f66206e6f6e60008201527f6578697374656e7420746f6b656e000000000000000000000000000000000000602082015250565b600061408d602e8361250b565b915061409882614031565b604082019050919050565b600060208201905081810360008301526140bc81614080565b9050919050565b60006020601f8301049050919050565b600082821b905092915050565b6000600883026141107fffffffffffffffffffffffffffffffffffffffffffffffffffffffffffffffff826140d3565b61411a86836140d3565b95508019841693508086168417925050509392505050565b6000819050919050565b600061415761415261414d846125b2565b614132565b6125b2565b9050919050565b6000819050919050565b6141718361413c565b61418561417d8261415e565b8484546140e0565b825550505050565b600090565b61419a61418d565b6141a5818484614168565b505050565b5b818110156141c9576141be600082614192565b6001810190506141ab565b5050565b601f82111561420e576141df81613a05565b6141e8846140c3565b810160208510156141f7578190505b61420b614203856140c3565b8301826141aa565b50505b505050565b600082821c905092915050565b600061423160001984600802614213565b1980831691505092915050565b600061424a8383614220565b9150826002028217905092915050565b61426382612500565b67ffffffffffffffff81111561427c5761427b6127fd565b5b6142868254612a1a565b6142918282856141cd565b600060209050601f8311600181146142c457600084156142b2578287015190505b6142bc858261423e565b865550614324565b601f1984166142d286613a05565b60005b828110156142fa578489015182556001820191506020850194506020810190506142d5565b868310156143175784890151614313601f891682614220565b8355505b6001600288020188555050505b505050505050565b600060608201905081810360008301526143468186612557565b9050614355602083018561275d565b6143626040830184612647565b949350505050565b600081519050919050565b600082825260208201905092915050565b60006143918261436a565b61439b8185614375565b93506143ab81856020860161251c565b6143b481612546565b840191505092915050565b60006080820190506143d46000830187612647565b6143e16020830186612647565b6143ee604083018561275d565b81810360608301526144008184614386565b905095945050505050565b60008151905061441a81612471565b92915050565b6000602082840312156144365761443561243b565b5b60006144448482850161440b565b91505092915050565b7f4552433732313a206d696e7420746f20746865207a65726f2061646472657373600082015250565b600061448360208361250b565b915061448e8261444d565b602082019050919050565b600060208201905081810360008301526144b281614476565b9050919050565b7f4552433732313a20746f6b656e20616c7265616479206d696e74656400000000600082015250565b60006144ef601c8361250b565b91506144fa826144b9565b602082019050919050565b6000602082019050818103600083015261451e816144e2565b905091905056fe697066733a516d595479576b4436417371576e624e5a344e37324363353467644463674377524a5771706174666955675a6d7a416e204e465420772f20494420257320686173206265656e206d696e74656420746f2025734142434445464748494a4b4c4d4e4f505152535455565758595a6162636465666768696a6b6c6d6e6f707172737475767778797a303132333435363738392b2fa26469706673582212206a210447092e2a43c0e6815de9c01ecb3231b353e13afedefc7a23d285cdd16864736f6c63430008130033272f3e3c7061746820636c6173733d277374312720643d274d3430342e392034363820353132203336302e396c3130372e31203130372e322036322e332d36322e334c353132203233362e33203334322e36203430352e377a272f3e3c70617468207472616e73666f726d3d27726f74617465282d34352e303031203239382e363239203531312e393938292720636c6173733d277374312720643d274d3235342e36203436372e396838382e3156353536682d38382e317a272f3e3c7061746820636c6173733d277374312720643d274d3430342e392035353620353132203636332e316c3130372e312d3130372e322036322e342036322e33682d2e314c353132203738372e37203334322e36203631382e336c2d2e312d2e317a272f3e3c70617468207472616e73666f726d3d27726f74617465282d34352e303031203732352e333634203531322e303332292720636c6173733d277374312720643d274d3638312e33203436386838382e317638382e31682d38382e317a272f3e3c7061746820636c6173733d277374312720643d274d3537352e322035313220353132203434382e376c2d34362e372034362e382d352e3420352e332d31312e312031312e312d2e312e312e312e312036332e322036332e322036332e322d36332e337a272f3e3c2f673e3c2f7376673e3c7376672077696474683d2731303234707827206865696768743d27313032347078272076696577426f783d27302030203130323420313032342720786d6c6e733d27687474703a2f2f7777772e77332e6f72672f323030302f737667273e3c7374796c653e2e7374317b66696c6c3a236666667d2e62617365207b2066696c6c3a2077686974653b20666f6e742d66616d696c793a2073657269663b20666f6e742d73697a653a20313470783b207d3c2f7374796c653e3c726563742077696474683d273130302527206865696768743d2731303025272066696c6c3d27626c61636b272f3e3c7465787420783d2731252720793d273939252720636c6173733d27626173652720646f6d696e616e742d626173656c696e653d276c6566742720746578742d616e63686f723d276c656674273e416e6479202d2042696e616e6369616e3c2f746578743e3c672069643d2749636f6e273e3c636972636c652063783d27353132272063793d273531322720723d2735313227207374796c653d2766696c6c3a",
  "linkReferences": {},
  "deployedLinkReferences": {}
}